:020000040000FA
:030000000200E318
:03003300020AEFCF
:03006B00020A295D
:03007B00020A82F4
:100083000209F100000080FB12013FB900030200E6
:10009300CDE490010178CE79018002F0A3D8FCD998
:1000A300FA9001CEAA82AB83900142781D79018038
:1000B30015E493A3AC82AD838A828B83F0A3AA82D7
:1000C300AB838C828D83D8E9D9E77582217583113F
:1000D30074001200F575828675830074001200F5B2
:1000E30075D0007581BF751001751101759F0002F0
:1000F300008BC0F0F5F0E59F5407C0E0E59F54F88E
:1001030045F0D0F0F59FE473859FF053F0F8D0E00D
:1001130045F0F59F22D083D082E59F5407C0E0E4E9
:1001230093C0E0740193C0E07402935407C0F0F5E8
:10013300F0E59F54F845F0D0F0F59F227901224C69
:100143006967687400526561647900FF000000000C
:100153000000000000000000000000120118460B20
:10016300001201182F0C00120118C10C0012011803
:10017300F50C001201181E0D001201184B0D001290
:100183000118720D00120118950D00120118AD0D22
:1001930000120118BD0D00120118D20D0012011832
:1001A300E70D00120118F50D00120118EA0E0012F6
:1001B30001180E0F001201186C0F00120118920F94
:1001C30000120118DF0F00120118001000120118AD
:1001D3006A10001201189910001201186811001218
:1001E3000118AE1100E0FAA3E0FBA3E0FCA3E0FDDD
:1001F30022EAF0A3EBF0A3ECF0A3EDF022CAC0E0F7
:10020300E6F0A308DAFAD0E0FA22700422600D18AF
:10021300C6C333C608C633C6D5E0F418222510106A
:10022300AF08F510400215118008F51040021511B2
:10023300D2AF22C0D0251010AF08F510500205111F
:100243008008F51050020511D2AFD0D0222510F549
:100253008210AF08F510400215118008F510400216
:100263001511D2AF851183222510F582E43511F5DE
:100273008322E4732510C582C0E0E51134FFC583F2
:10028300C0E0E510C3958224F810AF08858311857B
:1002930082108008858311858210D2AFCEF0A3E54A
:1002A30020F0A37808E608F0A3DEFAEFF0A3E581D7
:1002B30024FAF8E608F0A3E608F0A3E608F0A3089A
:1002C30008E608F0A3E608F0A315811581D0E0FE47
:1002D300D0E0F8158115811581E8C0E0EEC0E02279
:1002E300851183851082E0A3FEE0A3F5207808E062
:1002F300A3F608DFFAE0A3FFE0A3C0E0E0A3C0E0B9
:10030300E0A3C0E0E0A3C0E0E0A3C0E010AF088535
:1003130082108583118008858210858311D2AFD026
:1003230083D08202010BC0D02510C582C0E0E51145
:1003330034FFC583C0E0E510C3958224F310AF08F2
:100343008583118582108008858311858210D2AF41
:10035300C8F0A3E9F0A3EAF0A3EBF0A37908E70957
:10036300F0A3D8FAECF0A3EDF0A3EEF0A3EFF0A323
:10037300D0E0F0A3D0E0F0A3D0E0F0A3E520F0A319
:10038300E5F0F0A322851183851082E0C0E0A3E0AD
:10039300F9A3E0FAA3E0FBA37808E0F608A3DFFAE9
:1003A300E0FCA3E0FDA3E0FEA3E0FFA3E0C0E0A325
:1003B300E0C0E0A3E0F5D0A3E0F520A3E0A3F5F0CF
:1003C30010AF08858311858210800885831185828B
:1003D30010D2AFD082D083D0E0F8D0E03274028064
:1003E30000C0E0F404120250D0E012020022000028
:1003F3000000000000000070F8F8700000000038F2
:1004030078000078380020F8F820F8F8200060F031
:100413009C9C9010000060600080C0600000B0F8F9
:10042300C8F8B0008000004078380000000000C029
:10043300E0301808000000081830E0C0000080A079
:10044300E0C0C0E0A080008080E0E0808000000089
:100453000000000000008080808080808000000019
:1004630000000000000000000080C0603000F0F8D1
:1004730008C868F8F0002020F0F8000000003038C9
:100483000888F870000010188888F870000080C091
:100493006030F8F80000F8F8888888080000E0F079
:1004A3009888880000003838080888F8780070F8C1
:1004B300C888F870000070F88888F8F00000000021
:1004C300606060000000000060606000000080C0A9
:1004D30060301808000000404040404040000008E1
:1004E300183060C08000101888C878300000F0F819
:1004F30008C8C8F8F000E0F01818F0E0000008F8A9
:10050300F88888F87000E0F018080838300008F818
:10051300F80818F0E00008F8F88888C8180008F808
:10052300F88888D83800E0F0180808383000F8F860
:100533008080F8F800000008F8F8080000000000C8
:100543000008F8F8080008F8F880E078180008F8C0
:10055300F80800000000F8F870E070F8F800F8F808
:10056300E0C080F8F800E0F0180818F0E00008F8A0
:10057300F88888F87000E0F0180818F0E00008F830
:10058300F88888F8700070F88888383000001808F8
:10059300F8F808180000F8F80000F8F80000F8F878
:1005A3000000F8F80000F8F8008000F8F800387848
:1005B300C0C07838000078F88080F87800003818D8
:1005C30088E8781818000000F8F808080000306080
:1005D300C0800000000000000808F8F80000203088
:1005E300180C18302000000000000000000000007C
:1005F3000C1C1000000000404040C080000008F8C0
:10060300F84040C0800080C04040C080000080C0EF
:100613004048F8F8000080C04040C080000080F0EF
:10062300F8889810000080C0404080C0400008F85F
:10063300F88040C08000004040D8D800000000008F
:100643004040D8D8000008F8F80080C040000008F7
:1006530008F8F8000000C0C040C040C08000C0C01F
:100663004040C080000080C04040C080000040C0C7
:10067300804040C0800080C0404080C0400040C0F7
:10068300C000C0C0800080C04040C080000040E087
:10069300F04040400000C0C00000C0C00000C0C027
:1006A3000000C0C00000C0C0000000C0C00040C0C7
:1006B300800080C0400000C0C00000C0C000C04037
:1006C3004040C0C0000080C070380808000000002F
:1006D30000787800000008083870C08000003038C7
:1006E3000818302038080080C060C0800000000077
:1006F30000000000000000000D0D000000000000DD
:10070300000000000000020F0F020F0F020004049C
:100713001C1C070300000C0603010C0C0000070F50
:10072300080D070F09000000000000000000000191
:1007330003060C08000000080C0603010000000279
:100743000301010302000000000303000000001086
:100753001C0C0C0000000000000000000000000062
:100763000C0C0C0000000C06030100000000070F36
:100773000B09080F070008080F0F080800000C0EEC
:100783000B090C0C0000040C08080F070000010102
:1007930001090F0F0900040C08080F070000070FD9
:1007A30008080F07000000000E0F01000000070FEC
:1007B30008090F07000000080C0F030000000000E9
:1007C3000606060000000000161E0E0000000001D1
:1007D30003060C08000000010101010101000008EB
:1007E3000C060301000000000D0D00000000070FC0
:1007F3000809090901000F0F01010F0F0000080F7D
:100803000F08080F070003070C08080E0600080F5F
:100813000F080C070300080F0F0808090C00080F46
:100823000F080001000003070C08090F0F000F0F4A
:1008330000000F0F000000080F0F08000000070F53
:1008430008080F070000080F0F00030F0C00080F24
:100853000F08080E0F000F0F0000000F0F000F0FFF
:100863000001030F0F0003070C080C070300080F18
:100873000F0800000000030704161F1F1300080FD2
:100883000F00010F0E00060E08090F0600000008F6
:100893000F0F08000000070F08080F0700000307E9
:1008A3000C0C07030000010F0E010E0F01000E0FC9
:1008B30001010F0E000000080F0F080000000C0FCD
:1008C3000B08080C0E0000000F0F080800000000C2
:1008D300000103060C00000008080F0F00000000D1
:1008E3000000000000001010101010101010000085
:1008F300000000000000060F0909070F0800080F99
:100903000708080F0700070F08080C040000070F6B
:100913000808070F0800070F09090D050000080F55
:100923000F0800000000133724243F1F0000080FA6
:100933000F00000F0F000008080F0F0808001838F9
:1009430020203F1F0000080F0F01030E0C000008BA
:10095300080F0F0808000F0F0007000F0F000F0FFD
:1009630000000F0F0000070F08080F070000203FCB
:100973003F28080F0700070F08283F3F8000080F94
:100983000F0900010100040D090A0E04000000070D
:100993000F080C040000070F0808070F08000307DF
:1009A3000C0C07030000030F0C030C0F0300080CCF
:1009B3000703070C0800202327341C0F03000C0E29
:1009C3000A09090C00000001070E080800000000D6
:1009D300000F0F00000008080E07010000000000D0
:1009E3000000000000000707040404070700C0E03C
:1009F30074F2120329A2AFE433FEC2AFE5E9A2E623
:100A0300501A90018AE0F8A3E0F9E8496008E0F59C
:100A1300838882120275759B0053E9BFEEA2E092B0
:100A2300AF7F01020388C0E074F1120329C2C5E558
:100A33008960477E00750801750900EE7808120287
:100A43000DAF08E5895F602BEEC333F8E433F97427
:100A53009C28F5827401120AD86014EEC333F8E4BB
:100A630033F9749C28F5827401120AE3120275EFBC
:100A7300F452890EEEC3940840BB7F02020388C080
:100A8300E074F1120329C2EBE58A60477E00750822
:100A930001750900EE780812020DAF08E58A5F6060
:100AA3002BEEC333F8E433F974AC28F582740112E6
:100AB3000AD86014EEC333F8E433F974AC28F58232
:100AC3007401120AE3120275EFF4528A0EEEC39414
:100AD3000840BB80A539F583E0F8A3E0F9E8492293
:100AE30039F583E0F8A3E0F583888222C0E074F14E
:100AF300120329C2E8E58B60477E0075080175097A
:100B030000EE780812020DAF08E58B5F602BEEC391
:100B130033F8E433F974BC28F5827401120AD860FF
:100B230014EEC333F8E433F974BC28F5827401126C
:100B33000AE3120275EFF4528B0EEEC3940540BB29
:100B4300020A7DC082C08312018ED2AF79017A0A74
:100B53007B0112018890010AE0C2E7F06405703559
:100B63007905120C215004D2F08002C2F0A2F0E405
:100B7300339001E2F090010FE0A2E74003020C1969
:100B830090010DE0F8900101E0686003020C19A3E5
:100B93007401020C18E024F59001DFF090010AE0E3
:100BA300F9120C215004D2F08002C2F0A2F0E43317
:100BB3009001E2F0900112E0F8A3E0F99001DBE884
:100BC300F0A3E9F09001E07414F0A37401F0900134
:100BD300DFE0F83395E0F9741428F8740139F988E3
:100BE300828983E09001E3F088828983A3E0A2E70E
:100BF300501C9001DAE0F890010DE068601090015C
:100C03000BE054DF644170069001E47401F090013D
:100C13000DE09001DAF0C2AF120194020DCB7A0B12
:100C23007B0112018890010BE0A2E52274F7120206
:100C330077EAFEEBFF120182E96401700479018017
:100C43006FC2AF900108EEF0A3EFF09001E0E4F083
:100C5300A3F090010304F09001E61201E89001046F
:100C63001201F475F005120CB8A3A3E0A424D490E8
:100C7300618FF0900109E0F5838882E0F8A3E0F941
:100C8300E8906174F0E9A3F0120CB8E0F8A3E0F97E
:100C9300E8906172F0E9A3F0E5A8F8C2AF90018A89
:100CA300745EF0A37401F0E8A2E792AFD2AF7900CB
:100CB3007F010202E3900108120EBCA3A322E5C642
:100CC3005480F853BEFBE59DA2E550FAE59DA2E2F0
:100CD30040F4007401697007744948F5C68005E95A
:100CE300700288C6E5C6F8E59E6870FB43BE040241
:100CF300010BE9F8E59EA2E640047901801AE87049
:100D03000553C67F8008740168700343C680E5C637
:100D1300F9E59E6970FB790002010BEBC313FBEA53
:100D230013FAEAF8EBF9E824FFFAE934FFFBE849A0
:100D3300601300000000000000000000000000003D
:100D430000000080DD02010B74F7120277EAFEEB6C
:100D5300FFEEF8EFF9E824FFFEE934FFFFE849600E
:100D6300097AE87B0312017680E77F010202E3C080
:100D730082C083906189E04460F09061FA7409F065
:100D83009061B27415F09061AEE4F01201947900B1
:100D93008036C082C083800DE5D98A828B83F0A31D
:100DA300AA82AB8319E970F0801EC082C083906170
:100DB300A3E0C2E6F0539AFE800EC082C083906126
:100DC300A3E0D2E6F0439A01D083D08202010BC2A2
:100DD30092C280C2F989F9A2F950FC00000000D246
:100DE3009202010BC292D280C2F989F9A2F950FC96
:100DF30080E974F012027774FE120220890FEAFE72
:100E0300EBFF1201E2EAF50E851082851183EEF005
:100E1300A3EFF074FF250FC333FA79001201AC7509
:100E23000A0080298E828F83E024E0F50CE434FFEE
:100E3300F50D7403780C12020D850C08850D09A3BA
:100E4300AE82AF83F50B120EC540FB050AE50AC35C
:100E5300950E40D0E50FC33314FA79001201AC7537
:100E63000A008044851082851183120EBCE0244061
:100E7300F50CE43400F50D7403780C12020D850CA7
:100E830008850D09851082851183E02401F8A3E00C
:100E93003400F9851082851183E8F0A3E9F0750B1E
:100EA30000120EC540FB050AE50AC3950E40B57452
:100EB300021202367F080202E3E0F8A3E0F583881A
:100EC3008222850B0CE508250CF8E5093400F9743A
:100ED300F128F582740339F583E493F91201A0052F
:100EE3000BE50BC394082274F7120277E9FEEAFFBD
:100EF30074B04FF912019AEEC4540F4410F9120161
:100F03009A740F5EF912019A020CB3C082C0835324
:100F1300F3FED28043FD0153F4FBD29243FE04530C
:100F2300F37FC28743FD8079AF12019A79401201A2
:100F33009A79A012019A79A612019A79A412019AB8
:100F430079A212019A79C812019A792F12019A791A
:100F5300F812019A790012019A798112019A79386B
:100F630012019A1201B8020DCB74F71202777F00B7
:100F73007E00EFFAEEF91201AC79001201A00EEE39
:100F8300C3948440ED0FEFC3940840E4020CB374A0
:100F9300F6120277EA4B603078008A828B83E06036
:100FA30013C0E0120FD0D0E0F08A828B83A3AA8211
:100FB300AB838006120FD07420F008E8C39410406E
:100FC300D97A8C7B011201A67F020202E38808749E
:100FD3008C2508F58274013400F58322C082C08316
:100FE30079011201D079021201D079031201D0796B
:100FF300041201D07A327B0012017C80E3C082C0EC
:10100300837900120170E96010790112016A790095
:10101300120170E960031201C4790012016A43FEF0
:1010230001C29043FE02C29143FE08C29343FE10E5
:10103300C29453F3EF53FDEF438F1012115B43F14F
:101043000243F48043F44043F420E59E75FB80752E
:10105300F800A2E0E433240F4420F5FC75FA5312A0
:1010630001B2D2AF020DCBC082C083E914600B146E
:10107300600D14600F146011801963900180146374
:101083009002800F639008800A6390109001C6E07D
:101093006401F0020DCB74F61202777ACE7B0179EC
:1010A300011201BE7AD47B0179021201BE9001C8FC
:1010B30074EFF0A374BEF07AC87B01120164E96493
:1010C3000170031201C49001037401F075E1EC7522
:1010D300E1E3803775080175090078081203E09091
:1010E30001E0E0FCA3E0FD7AC77B011201DC74029E
:1010F3001202369001E4E4F0D2AF9001DFE0600B1E
:101103009001C7E0700579011201D09001E4E0601D
:10111300FAC2AF9001DFE070BB75080080B990019F
:10112300CAE4F0A37420F0A37404F0A37401F012D2
:1011330001CA12115B120182E9640170031201C436
:10114300D2907A5E7B0112017C1201B81201B812AF
:1011530001D61201C402010B53F5FE53FFFE43F700
:101163000143F3402274F6120277740A12026BE011
:10117300FEA3E0FFEAF8EBF980188C828D83E08808
:10118300828983F0A3A882A9838C828D83A3AC82F6
:10119300AD838E088F09E50824FF1EE50934FFFFA0
:1011A300E508450970D47F020202E3C082C0838A46
:1011B300828B838001A3E070FCE582C39AFAE58306
:0911C3009BFBD083D08202010BDA
:04000005000000E314
:00000001FF
