:020000040000FA
:030000000200E318
:03003300020E5862
:03004B00020D792A
:03006B00020D92F1
:03007B00020DF67D
:10008300020D4500000080FB120113B900030200BA
:10009300CDE4900101781B79028002F0A3D8FCD94A
:1000A300FA90021BAA82AB8390011678B97901807A
:1000B30015E493A3AC82AD838A828B83F0A3AA82D7
:1000C300AB838C828D83D8E9D9E775821375831B43
:1000D30074001200F575828675830074001200F5B2
:1000E30075D0007581BF751001751101759F0002F0
:1000F300008BC09FF59FE473D09F22D083D082C032
:100103009FE493C0E0740193C0E0740293F59F22CF
:100113007901223234323000323433300032343316
:10012300310032353230003235333000323533313D
:100133000032353130003235313100313131300068
:1001430031313131002D2D2D2D00202020434378D6
:100153007878782028202900202020000000000043
:10016300000000000000000000000000000000008C
:1001730000000000000050455220546573746572FE
:100183000052656365697665720052656164790042
:10019300524543453A0020005045523A00525353CA
:1001A300493A2D000A00FF00000000000000000093
:1001B3000000490000000001000000E903000064A2
:1001C3000000000A000000E80300001200FEAF0E6A
:1001D300001200FE950F001200FE2710001200FE11
:1001E3003A10001200FE6E10001200FE971000126B
:1001F30000FEC410001200FEEB10001200FE0E11F0
:10020300001200FE2611001200FE3611001200FE3D
:100213004B11001200FE6011001200FE6E1100125D
:1002230000FE6312001200FE8712001200FEE512A8
:10023300001200FE0D13001200FE5A13001200FEFE
:100243007B13001200FEE813001200FE32140012AA
:1002530000FE5C14001200FE8B14001200FEA615B3
:10026300001200FEDA15001200FEBF1B001200FE92
:10027300051C001200FE3B1C001200FE5C1B00E08C
:1002830066701008A3E066700A08A3E066700408AD
:10029300A3E06622C3E09608A3E09608A3E09608CD
:1002A300A3E096A2D265D03322C3E09608A3E096DA
:1002B30008A3E09608A3E09622080808EAC0E0EB4A
:1002C300C0E086F0E7A4FA180986F0E7A42AFA1832
:1002D3000986F0E7A42AFA180986F0E7A42AFA198E
:1002E30086F0E7A4FBE5F02AFA190886F0E7A42BC9
:1002F300FBE5F03AFA190886F0E7A42BFBE5F03AA0
:10030300FA18180986F0E7A4C5F02BFBE43AFA19AA
:1003130008E7C5F0C6A426F6E5F03BFBE43AFA1875
:1003230086F0E7A4F6E5F00826F6E43B08F6E43A9F
:1003330008F6D0E0FBD0E0FA22E4CFC0E0E4CEC080
:10034300E0E4CDC0E0E4CCC0E075F020C3E633F6D2
:1003530008E633F608E633F608E633F6181818EC21
:1003630033FCED33FDEE33FEEF33FFC3EC9709EDC2
:100373009709EE9709EF97191919400FFFEC97FCAE
:1003830009ED97FD09EE97FE191906D5F0BEECF7B6
:1003930009EDF709EEF709EFF7191919D0E0FCD0C9
:1003A300E0FDD0E0FED0E0FF22120414181818126A
:1003B300033C120403191919221204031919190809
:1003C3000808E618181820E7E012033C1204141872
:1003D300181822090909E719191920E7DC08080880
:1003E300E618181820E70302033C1204141818181F
:1003F30012033C12041418181812040319191922B1
:10040300E4C397F709E497F709E497F709E497F743
:1004130022E4C396F608E496F608E496F608E49612
:10042300F622E026F608A3E036F608A3E036F6083F
:10043300A3E036F622E026F008A3E036F008A3E0B6
:1004430036F008A3E036F022C3E0C696F608A3E030
:10045300C696F608A3E0C696F608A3E0C696F6226B
:10046300E0F608A3E0F608A3E0F608A3E0F622E628
:10047300F008A3E6F008A3E6F008A3E6F022E0FA0A
:10048300A3E0FBA3E0FCA3E0FD22EAF0A3EBF0A3CF
:10049300ECF0A3EDF022CAC0E0E6F0A308DAFAD04C
:1004A300E0FA22CAC0E0E0A3C582CCC582C583CDF1
:1004B300C583F0A3C582CCC582C583CDC583DAE6E7
:1004C300D0E0CA22C3E498F8E499F912050880261B
:1004D300C3E49AFAE49BFBE920E7E9120508E498F0
:1004E300F8E499F922C3E498F8E499F9120508E4C9
:1004F30098F8E499F9C3E49AFAE49BFB22EB20E72A
:10050300CFE920E7E0B90010BB0008E88AF084F8DF
:10051300AAF022E4FBC8FA22EB70227B10C833C88E
:10052300C933C9335007C39AC3DBF280069A50011B
:100533002ADBEAC833F4C8C933F4C9FA2275F008D0
:10054300E4C833C8C933C933C99AC99B5004C92AFB
:10055300C93BD5F0ECFBC833F4C8E4C9FA227004F4
:1005630022600D18C6C333C608C633C6D5E0F418D7
:1005730022251010AF08F510400215118008F51060
:1005830040021511D2AF22C0D0251010AF08F510CC
:10059300500205118008F51050020511D2AFD0D0DA
:1005A300222510F58210AF08F510400215118008BE
:1005B300F51040021511D2AF851183222510F58263
:1005C300E43511F58322E4732510C582C0E0E511FB
:1005D30034FFC583C0E0E510C3958224F810AF084B
:1005E3008583118582108008858311858210D2AF9F
:1005F300CEF0A3E520F0A37808E608F0A3DEFAEF37
:10060300F0A3E58124FAF8E608F0A3E608F0A3E6F0
:1006130008F0A30808E608F0A3E608F0A31581157F
:1006230081D0E0FED0E0F8158115811581E8C0E0A6
:10063300EEC0E022851183851082E0A3FEE0A3F5DE
:10064300207808E0A3F608DFFAE0A3FFE0A3C0E008
:10065300E0A3C0E0E0A3C0E0E0A3C0E0E0A3C0E00B
:1006630010AF0885821085831180088582108583E9
:1006730011D2AFD083D0820200FBC0D02510C58237
:10068300C0E0E51134FFC583C0E0E510C3958224C3
:10069300F310AF0885831185821080088583118547
:1006A3008210D2AFC8F0A3E9F0A3EAF0A3EBF0A362
:1006B3007908E709F0A3D8FAECF0A3EDF0A3EEF084
:1006C300A3EFF0A3D0E0F0A3D0E0F0A3D0E0F0A339
:1006D300E520F0A3E5F0F0A322851183851082E0E5
:1006E300C0E0A3E0F9A3E0FAA3E0FBA37808E0F6F7
:1006F30008A3DFFAE0FCA3E0FDA3E0FEA3E0FFA371
:10070300E0C0E0A3E0C0E0A3E0F5D0A3E0F520A3C0
:10071300E0A3F5F010AF088583118582108008856A
:100723008311858210D2AFD082D083D0E0F8D0E09D
:100733003274028000C0E0F4041205A4D0E0120475
:10074300992200000000000000000070F8F870001B
:100753000000003878000078380020F8F820F8F816
:10076300200060F09C9C9010000060600080C060DE
:100773000000B0F8C8F8B0008000004078380000EE
:10078300000000C0E0301808000000081830E0C086
:10079300000080A0E0C0C0E0A080008080E0E08096
:1007A30080000000000000000000808080808080C6
:1007B3008000000000000000000000000080C06016
:1007C3003000F0F808C868F8F0002020F0F80000C6
:1007D300000030380888F870000010188888F87016
:1007E300000080C06030F8F80000F8F888888808B6
:1007F3000000E0F09888880000003838080888F87E
:10080300780070F8C888F870000070F88888F8F0ED
:100813000000000060606000000000006060600095
:10082300000080C060301808000000404040404095
:1008330040000008183060C08000101888C8783065
:100843000000F0F808C8C8F8F000E0F01818F0E06D
:10085300000008F8F88888F87000E0F018080838F5
:10086300300008F8F80818F0E00008F8F88888C89D
:10087300180008F8F88888D83800E0F01808083815
:100883003000F8F88080F8F800000008F8F8080055
:10089300000000000008F8F8080008F8F880E07885
:1008A300180008F8F80800000000F8F870E070F885
:1008B300F800F8F8E0C080F8F800E0F0180818F045
:1008C300E00008F8F88888F87000E0F0180818F0DD
:1008D300E00008F8F88888F8700070F888883830E5
:1008E30000001808F8F808180000F8F80000F8F8F5
:1008F3000000F8F80000F8F80000F8F8008000F8AD
:10090300F8003878C0C07838000078F88080F8782C
:100913000000381888E8781818000000F8F808086C
:1009230000003060C0800000000000000808F8F8F4
:1009330000002030180C18302000000000000000D8
:10094300000000000C1C1000000000404040C0806C
:10095300000008F8F84040C0800080C04040C080DC
:10096300000080C04048F8F8000080C04040C080CC
:10097300000080F0F8889810000080C0404080C0DC
:10098300400008F8F88040C08000004040D8D800FC
:10099300000000004040D8D8000008F8F80080C0EC
:1009A3004000000808F8F8000000C0C040C040C084
:1009B3008000C0C04040C080000080C04040C08074
:1009C300000040C0804040C0800080C0404080C0E4
:1009D300400040C0C000C0C0800080C04040C08014
:1009E300000040E0F04040400000C0C00000C0C034
:1009F3000000C0C00000C0C00000C0C0000000C0B4
:100A0300C00040C0800080C0400000C0C00000C0E3
:100A1300C000C0404040C0C0000080C0703808081B
:100A23000000000000787800000008083870C080DB
:100A3300000030380818302038080080C060C080BB
:100A43000000000000000000000000000D0D000089
:100A530000000000000000000000020F0F020F0F53
:100A6300020004041C1C070300000C0603010C0C09
:100A73000000070F080D070F090000000000000029
:100A83000000000103060C08000000080C06030127
:100A93000000000203010103020000000003030041
:100AA300000000101C0C0C000000000000000000FF
:100AB300000000000C0C0C0000000C0603010000F9
:100AC3000000070F0B09080F070008080F0F08089D
:100AD30000000C0E0B090C0C0000040C08080F0797
:100AE3000000010101090F0F0900040C08080F079A
:100AF3000000070F08080F07000000000E0F010099
:100B03000000070F08090F07000000080C0F03007F
:100B1300000000000606060000000000161E0E007E
:100B23000000000103060C0800000001010101019F
:100B3300010000080C060301000000000D0D000079
:100B43000000070F0809090901000F0F01010F0F2A
:100B53000000080F0F08080F070003070C08080E12
:100B63000600080F0F080C070300080F0F080809F9
:100B73000C00080F0F080001000003070C08090F01
:100B83000F000F0F00000F0F000000080F0F0800E9
:100B93000000070F08080F070000080F0F00030FDE
:100BA3000C00080F0F08080E0F000F0F0000000FB6
:100BB3000F000F0F0001030F0F0003070C080C07B2
:100BC3000300080F0F0800000000030704161F1F8F
:100BD3001300080F0F00010F0E00060E08090F0681
:100BE300000000080F0F08000000070F08080F0798
:100BF300000003070C0C07030000010F0E010E0F8A
:100C030001000E0F01010F0E000000080F0F080076
:100C130000000C0F0B08080C0E0000000F0F080853
:100C230000000000000103060C00000008080F0F7D
:100C33000000000000000000000010101010101051
:100C430010100000000000000000060F0909070F44
:100C53000800080F0708080F0700070F08080C040F
:100C63000000070F0808070F0800070F09090D0503
:100C73000000080F0F0800000000133724243F1F53
:100C83000000080F0F00000F0F000008080F0F08E7
:100C93000800183820203F1F0000080F0F01030E23
:100CA3000C000008080F0F0808000F0F0007000FC3
:100CB3000F000F0F00000F0F0000070F08080F07AA
:100CC3000000203F3F28080F0700070F08283F3F79
:100CD3008000080F0F0900010100040D090A0E042A
:100CE300000000070F080C040000070F0808070F97
:100CF300080003070C0C07030000030F0C030C0F81
:100D03000300080C0703070C0800202327341C0FDB
:100D130003000C0E0A09090C00000001070E080865
:100D230000000000000F0F00000008080E0701007C
:100D3300000000000000000000000707040404078F
:100D43000700C0E074F212067DA2AFE433FEC2AF27
:100D5300E5E9A2E650169001CA120DEE6008E0F52F
:100D63008388821205C9759B0053E9BFEEA2E09206
:100D7300AF7F010206DCC0E074F212067D9001CC65
:100D8300120DEE6008E0F58388821205C980E2C087
:100D9300E074F112067DC2C5E58960477E007508DF
:100DA30001750900EE7808120561AF08E5895F60F7
:100DB3002BEEC333F8E433F974DE28F582740112A1
:100DC3000DEB6014EEC333F8E433F974DE28F582D7
:100DD3007401120E4C1205C9EFF452890EEEC3943E
:100DE3000840BB7F020206DC39F583E0F8A3E0F993
:100DF300E84922C0E074F112067DC2EBE58A604740
:100E03007E00750801750900EE7808120561AF08C8
:100E1300E58A5F602BEEC333F8E433F974EE28F50B
:100E2300827401120DEB6014EEC333F8E433F974EA
:100E3300EE28F5827401120E4C1205C9EFF4528AA2
:100E43000EEEC3940840BB809A39F583E0F8A3E023
:100E5300F583888222C0E074F112067DC2E8E58B37
:100E630060477E00750801750900EE780812056178
:100E7300AF08E58B5F602BEEC333F8E433F974FE00
:100E830028F5827401120DEB6014EEC333F8E433DA
:100E9300F974FE28F5827401120E4C1205C9EFF4A1
:100EA300528B0EEEC3940540BB020DE6C082C08395
:100EB300120204D2AF79017A4A7B011201FE90013A
:100EC3004AE0C2E7F0640570347905120F875004D5
:100ED300D2F08002C2F0A2F0E4339002B6F09001A7
:100EE3004FE0A2E74003020F7F90014DE0F890012D
:100EF30041E0686003020F7FA37401807EE024F564
:100F03009002B3F090014AE0F9120F875004D2F037
:100F13008002C2F0A2F0E4339002B6F090015212C4
:100F230010219002AFE8F0A3E9F09002B47454F0FA
:100F3300A37401F09002B3E0F83395E0F9745428F8
:100F4300F8740139F988828983E09002B7F08882C6
:100F53008983A3E0A2E7501C9002AEE0F890014D14
:100F6300E068601090014BE054DF6441700690022A
:100F7300B87401F090014DE09002AEF0C2AF1202DE
:100F83000A0211447A4B7B011201FE90014BE0A24D
:100F9300E52274F71205CBEAFEEBFF1201F8E964D0
:100FA3000170047901806BC2AF900148EEF0A3EFAA
:100FB300F09002B4E4F0A3F090014304F09002BB7C
:100FC30012048190014412048D75F005121018A3C8
:100FD300A3E0A424D490618FF0900149E0F58388C5
:100FE30082121021E8906174F0E9A3F01210181234
:100FF3001021E8906172F0E9A3F0E5A8F8C2AF9080
:1010030001CA74CEF0A37401F0E8A2E792AFD2AFA5
:101013007900021308900148121235A3A322E0F8C5
:10102300A3E0F922C082C0839001437401F075E10B
:10103300EC75E1E3021144E5C65480F853BEFBE5C9
:101043009DA2E550FAE59DA2E240F40074016970A7
:1010530007744948F5C68005E9700288C6E5C6F8F5
:10106300E59E6870FB43BE040200FBE9F8E59EA21F
:10107300E640047901801AE8700553C67F8008743E
:101083000168700343C680E5C6F9E59E6970FB7984
:10109300000200FBEBC313FBEA13FAEAF8EBF9E8EF
:1010A30024FFFAE934FFFBE8496013000000000065
:1010B30000000000000000000000000080DD0200CE
:1010C300FB74F71205CBEAFEEBFFEEF8EFF9E82429
:1010D300FFFEE934FFFFE84960097AE87B03120168
:1010E300EC80E77F01020637C082C083906189E00C
:1010F3004460F09061FA7409F09061B27415F09055
:1011030061AEE4F012020A79008036C082C08380A7
:101113000DE5D98A828B83F0A3AA82AB8319E97088
:10112300F0801EC082C0839061A3E0C2E6F0539AB0
:10113300FE800EC082C0839061A3E0D2E6F0439AA2
:1011430001D083D0820200FBC292C280C2F989F926
:10115300A2F950FC00000000D2920200FBC292D21E
:1011630080C2F989F9A2F950FC80E974F01205CB29
:1011730074FE120574890FEAFEEBFF120276EAF59C
:101183000E851082851183EEF0A3EFF074FF250F17
:10119300C333FA7900120222750A0080298E828FE6
:1011A30083E024E0F50CE434FFF50D7403780C12AE
:1011B3000561850C08850D09A3AE82AF83F50B127B
:1011C300123E40FB050AE50AC3950E40D0E50FC366
:1011D3003314FA7900120222750A008044851082C2
:1011E300851183121235E02440F50CE43400F50D2B
:1011F3007403780C120561850C08850D098510822E
:10120300851183E02401F8A3E03400F98510828579
:101213001183E8F0A3E9F0750B0012123E40FB05C1
:101223000AE50AC3950E40B5740212058A7F0802C7
:101233000637E0F8A3E0F583888222850B0CE508E6
:10124300250CF8E5093400F9744528F5827407394B
:10125300F583E493F9120216050BE50BC3940822F8
:1012630074F71205CBE9FEEAFF74B04FF9120210CE
:10127300EEC4540F4410F9120210740F5EF91202F7
:1012830010021308C082C08353F3FED28043FD01D2
:1012930053F4FBD29243FE0453F37FC28743FD8092
:1012A30079AF120210794012021079A0120210795C
:1012B300A612021079A412021079A212021079C8A0
:1012C300120210792F12021079F81202107900120B
:1012D30002107981120210793812021012022E02C2
:1012E300114474F71205CB7F007E00EFFAEEF9127A
:1012F300022279001202160EEEC3948440ED0FEF22
:10130300C3940840E47F0102063774F61205CBEA62
:101313004B603078008A828B83E06013C0E0121345
:101323004BD0E0F08A828B83A3AA82AB8380061220
:10133300134B7420F008E8C3941040D97ACE7B0194
:1013430012021C7F02020637880874CE2508F58234
:1013530074013400F58322C082C0837901120252E2
:101363007902120252790312025279041202527A5A
:10137300327B001201F280E3C082C0837900120144
:10138300E6E9601079011201E079001201E6E960F3
:101393000312023A79001201E043FE01C29043FEB8
:1013A30002C29143FE10C29443FD02C2811214286B
:1013B30053F5FE53FFFE43F70143F34043F102436A
:1013C300F48043F44043F420E59E75FB8075F800F8
:1013D300A2E0E433240F4420F5FC75FA53120228EB
:1013E300D2AF021144C082C0837900121428A284B0
:1013F30050227800A284500478007900E824010880
:10140300E93400F9C3E894F4E99401A2D265D03336
:1014130040E2790153F3FD900208E0A2E092814398
:10142300FD0202114453F3EF53FDEF438F1022C02B
:1014330082C083E914600B14600C14600D14600EF9
:101443008014D2908010D291800CD2948008D281E3
:101453009002087401F0021144C082C083E9146051
:101463000B14600D14600F146011801963900180D8
:1014730014639002800F639010800A6380029002CD
:1014830008E06401F002114474F41205CB74D41221
:1014930005748A088B09851082851183AC82AD831C
:1014A300758302758252740E1204A6740E1205BF60
:1014B300AC82AD83758302758260741E1204A6909C
:1014C300624AE014602A14605724F1601D2490607E
:1014D3002B24FD603914604224FC603824F8601624
:1014E30024EC602424F0601A803C7C487D02803A1E
:1014F3007C437D0280347C3E7D02802E7C397D02DC
:1015030080287C347D0280227C2F7D02801C7C2AF3
:101513007D0280167C257D0280107C207D02800A5E
:101523007C1B7D0280047C4D7D02750A04750B00D3
:10153300780A12073474071205BFAA82AB8312021A
:101543007C740212058A906249E0C4540F2430C0AF
:10155300E0740B1205BFD0E0F0AA08AB09120276C3
:101563008A0A8B0BAE0AAF0B740E1205BFAA82ABAD
:10157300831202768A0A8B0BEE250AF8EF350BF9F4
:10158300C3E89411E994005010AC08AD09740E122D
:1015930005BFAA82AB83120270742C12058A7F04E2
:1015A30002063774F71205CB78007900801A8A8215
:1015B3008B83E0F5C1A3AA82AB83A2E950FCC2E905
:1015C300E8240108E93400F9C3E89CE99DA2D26547
:1015D300D03340DA02130874F01205CB749C120561
:1015E30074900101C08274241205BFAC82AD83756F
:1015F3008301D08274401204A6851082851183F082
:101603009002BB120481740B1205BF12048D900269
:10161300BB120481741B1205BF12048D9002BB120E
:10162300048174131205BF12048D74091205BFE4FB
:10163300F0A3F0041205BFE4F075F10075F30C5349
:10164300FF3F43868043C50B43C2D8C2E9121AFE4B
:10165300700312023A1201DA121AFE700312023AEE
:101663001201DA12022E7A7E7B0279011202347A97
:10167300897B0279021202347A927B027903120285
:101683003402195A740F1205BF78081204639002CA
:10169300BF7808120425740B1205BF780812047270
:1016A3009002BB120481741B1205BF12048D9002B9
:1016B300BB12048174131205BF12048D9002BF780C
:1016C30008120463741B1205BF7808120438741BD4
:1016D3001205BF12048174031205BF12048D740333
:1016E3001205BFC082C0839002C37808120463D07E
:1016F30083D0827808120297402C120246E96401D3
:10170300702474011205BF7401F09002BF120481AA
:10171300741B1205BF12048D9002BB120481741353
:101723001205BF12048D74031205BF7808120463F7
:101733009002C7780C1204637808790C1203D6E57B
:10174300082430C0E074171205BFD0E0F074031210
:1017530005BF780C1204639002C7780812046378FB
:101763000C79081203D69002CB780C120463780824
:10177300790C1203D6E5082430C0E074181205BFB3
:10178300D0E0F074031205BF780C1204639002CB0F
:101793007808120463780C79081203D6E50824301C
:1017A300C0E074191205BFD0E0F0741A1205BFE44B
:1017B300F07C05FD7A987B0212025E7C047D007446
:1017C300171205BF121AEB74131205BF780812041F
:1017D300639002CF780C1204637808790C1202BC70
:1017E30074131205BF780C120463741B1205BF78BF
:1017F3000C1204257808790C12033C74031205BFFC
:10180300780812047274031205BF780812046390F7
:1018130002C7780C1204637808790C1203D6E50822
:101823002430C0E0741F1205BFD0E0F0740312052A
:10183300BF780C1204639002C77808120463780C13
:1018430079081203D69002CB780C120463780879D6
:101853000C1203D6E5082430C0E074201205BFD073
:10186300E0F074211205BF742EF074031205BF78E3
:101873000C1204639002CB7808120463780C790885
:101883001203D6E5082430C0E074221205BFD0E06D
:10189300F074231205BF7425F07C047D007AA07BCD
:1018A3000212025E7C057D00741F1205BF121AEB43
:1018B30074091205BF1210217A207B0012050088DB
:1018C30008E9F5093395E0F50AF50B7808120414D5
:1018D30074031205BF780812047274031205BF78EB
:1018E300081204639002CB780C1204637808790C15
:1018F3001203D6E5082430C0E074071205BFD0E018
:10190300F074031205BF780C1204639002CB7808BD
:10191300120463780C79081203D6E5082430C0E07A
:1019230074081205BFD0E0F07C067D007AA57B0227
:1019330012025E7C027D0074071205BFAA82AB838C
:1019430012025E7C017D007AAC7B0212025EC294BD
:101953007A2C7B011201F29002B8E060FAC2AF90D8
:1019630002B3E0F8C39467740250061205BFE8801F
:10197300051205BF7467F0E0F508750900780812D1
:1019830007349002B4E0FCA3E0FD7A0F7B0212025D
:101993006A740212058A9002B7E0F83395E0F99071
:1019A30002BAE0FAE8C39AFEE99400FF9002B8E4B1
:1019B300F0D2AF9002B3E0F8C394675003E86097A6
:1019C300790312024C90020F120481740F1205BFA7
:1019D30012048D74011205BFE06017740F1205BF66
:1019E300120481740B1205BF12048D74011205BF1A
:1019F300E4F0851082851183E0C333F8E433F9748E
:101A0300241205BFE58228F8E58339F988828983A2
:101A1300E0FAA3E0FB74091205BFC3E09AF0A3E068
:101A23009BF088828983EEF0A3EFF088828983128A
:101A3300102174091205BFE028F0A3E039F08510E6
:101A430082851183E004F064207002E4F0740B12C9
:101A530005BFC082C083740F1205BF7808120463E8
:101A6300D083D082780812028270159002BF780862
:101A7300120463740B1205BF78081204380216BFF0
:101A8300740B1205BFC082C083740F1205BF7808A0
:101A9300120463D083D08278081202AC400302168A
:101AA3008774131205BF7808120463740F1205BFFD
:101AB3007808120425740B1205BF780812044B74BE
:101AC300131205BF7808120472740F1205BF780849
:101AD3001204639002BF7808120425740B1205BF29
:101AE30078081204720216BFAA82AB8312025E7CCC
:101AF300017D007A9E7B0212025E2290020974EF3E
:101B0300F0A374BEF07A097B021201D4E9640122C6
:101B1300900219E4F090021A04F090020B7407F09B
:101B2300A37420F090020EE4F01202401201F8E9CF
:101B33006401700312023A790112024C7A7E7B022D
:101B43001202587A5E7B011201F290020D740BF0BF
:101B530012026412023A0200FB74F61205CB740AF5
:101B63001205BFE0FEA3E0FFEAF8EBF98E088F0948
:101B7300E50824FF1EE50934FFFFE5084509603346
:101B83008C828D83E0A3AC82AD838A828B83F0A3A6
:101B9300AA82AB8370D6EEFCEFFDEC24FF1EED347E
:101BA300FFFFEC4D600D8A828B83E4F0A3AA82AB26
:101BB3008380E3E8FAE9FB7F0202063774F6120535
:101BC300CB740A1205BFE0FEA3E0FFEAF8EBF9804D
:101BD300188C828D83E088828983F0A3A882A983ED
:101BE3008C828D83A3AC82AD838E088F09E5082494
:101BF300FF1EE50934FFFFE508450970D47F0202A3
:101C0300063774F71205CBEAF8EBF98005A3AA822D
:101C1300AB838A828B83E070F48C828D83E0A3ACE8
:101C230082AD838A828B83F0A3AA82AB8370EAE8B6
:101C3300FAE9FB7F01020637C082C0838A828B8365
:101C43008001A3E070FCE582C39AFAE5839BFBD095
:061C530083D0820200FBB9
:04000005000000E314
:00000001FF
